{
  "_format": "hh-sol-artifact-1",
  "contractName": "Coinflip",
  "sourceName": "contracts/Coinflip.sol",
  "abi": [
    {
      "inputs": [
        {
          "internalType": "address",
          "name": "_token",
          "type": "address"
        }
      ],
      "stateMutability": "nonpayable",
      "type": "constructor"
    },
    {
      "inputs": [
        {
          "internalType": "address",
          "name": "owner",
          "type": "address"
        }
      ],
      "name": "OwnableInvalidOwner",
      "type": "error"
    },
    {
      "inputs": [
        {
          "internalType": "address",
          "name": "account",
          "type": "address"
        }
      ],
      "name": "OwnableUnauthorizedAccount",
      "type": "error"
    },
    {
      "anonymous": false,
      "inputs": [
        {
          "indexed": true,
          "internalType": "address",
          "name": "previousOwner",
          "type": "address"
        },
        {
          "indexed": true,
          "internalType": "address",
          "name": "newOwner",
          "type": "address"
        }
      ],
      "name": "OwnershipTransferred",
      "type": "event"
    },
    {
      "inputs": [
        {
          "internalType": "uint256",
          "name": "_amount",
          "type": "uint256"
        },
        {
          "internalType": "bool",
          "name": "_choice",
          "type": "bool"
        }
      ],
      "name": "flip",
      "outputs": [],
      "stateMutability": "nonpayable",
      "type": "function"
    },
    {
      "inputs": [],
      "name": "owner",
      "outputs": [
        {
          "internalType": "address",
          "name": "",
          "type": "address"
        }
      ],
      "stateMutability": "view",
      "type": "function"
    },
    {
      "inputs": [],
      "name": "renounceOwnership",
      "outputs": [],
      "stateMutability": "nonpayable",
      "type": "function"
    },
    {
      "inputs": [],
      "name": "token",
      "outputs": [
        {
          "internalType": "contract IERC20",
          "name": "",
          "type": "address"
        }
      ],
      "stateMutability": "view",
      "type": "function"
    },
    {
      "inputs": [
        {
          "internalType": "address",
          "name": "newOwner",
          "type": "address"
        }
      ],
      "name": "transferOwnership",
      "outputs": [],
      "stateMutability": "nonpayable",
      "type": "function"
    }
  ],
  "bytecode": "0x608060405234801561001057600080fd5b5060405162000c5238038062000c5283398181016040528101906100349190610225565b33600073ffffffffffffffffffffffffffffffffffffffff168173ffffffffffffffffffffffffffffffffffffffff16036100a75760006040517f1e4fbdf700000000000000000000000000000000000000000000000000000000815260040161009e9190610261565b60405180910390fd5b6100b6816100fe60201b60201c565b5080600160006101000a81548173ffffffffffffffffffffffffffffffffffffffff021916908373ffffffffffffffffffffffffffffffffffffffff1602179055505061027c565b60008060009054906101000a900473ffffffffffffffffffffffffffffffffffffffff169050816000806101000a81548173ffffffffffffffffffffffffffffffffffffffff021916908373ffffffffffffffffffffffffffffffffffffffff1602179055508173ffffffffffffffffffffffffffffffffffffffff168173ffffffffffffffffffffffffffffffffffffffff167f8be0079c531659141344cd1fd0a4f28419497f9722a3daafe3b4186f6b6457e060405160405180910390a35050565b600080fd5b600073ffffffffffffffffffffffffffffffffffffffff82169050919050565b60006101f2826101c7565b9050919050565b610202816101e7565b811461020d57600080fd5b50565b60008151905061021f816101f9565b92915050565b60006020828403121561023b5761023a6101c2565b5b600061024984828501610210565b91505092915050565b61025b816101e7565b82525050565b60006020820190506102766000830184610252565b92915050565b6109c6806200028c6000396000f3fe608060405234801561001057600080fd5b50600436106100575760003560e01c8063105c27381461005c578063715018a6146100785780638da5cb5b14610082578063f2fde38b146100a0578063fc0c546a146100bc575b600080fd5b610076600480360381019061007191906105e0565b6100da565b005b610080610331565b005b61008a610345565b6040516100979190610661565b60405180910390f35b6100ba60048036038101906100b591906106a8565b61036e565b005b6100c46103f4565b6040516100d19190610734565b60405180910390f35b81600160009054906101000a900473ffffffffffffffffffffffffffffffffffffffff1673ffffffffffffffffffffffffffffffffffffffff166370a08231336040518263ffffffff1660e01b81526004016101369190610661565b602060405180830381865afa158015610153573d6000803e3d6000fd5b505050506040513d601f19601f820116820180604052508101906101779190610764565b10156101b8576040517f08c379a00000000000000000000000000000000000000000000000000000000081526004016101af906107ee565b60405180910390fd5b6000806002426101c8919061083d565b1490508015158215150361028857600160009054906101000a900473ffffffffffffffffffffffffffffffffffffffff1673ffffffffffffffffffffffffffffffffffffffff1663a9059cbb33600286610222919061089d565b6040518363ffffffff1660e01b815260040161023f9291906108ee565b6020604051808303816000875af115801561025e573d6000803e3d6000fd5b505050506040513d601f19601f82011682018060405250810190610282919061092c565b5061032c565b600160009054906101000a900473ffffffffffffffffffffffffffffffffffffffff1673ffffffffffffffffffffffffffffffffffffffff166323b872dd3330866040518463ffffffff1660e01b81526004016102e793929190610959565b6020604051808303816000875af1158015610306573d6000803e3d6000fd5b505050506040513d601f19601f8201168201806040525081019061032a919061092c565b505b505050565b61033961041a565b61034360006104a1565b565b60008060009054906101000a900473ffffffffffffffffffffffffffffffffffffffff16905090565b61037661041a565b600073ffffffffffffffffffffffffffffffffffffffff168173ffffffffffffffffffffffffffffffffffffffff16036103e85760006040517f1e4fbdf70000000000000000000000000000000000000000000000000000000081526004016103df9190610661565b60405180910390fd5b6103f1816104a1565b50565b600160009054906101000a900473ffffffffffffffffffffffffffffffffffffffff1681565b610422610565565b73ffffffffffffffffffffffffffffffffffffffff16610440610345565b73ffffffffffffffffffffffffffffffffffffffff161461049f57610463610565565b6040517f118cdaa70000000000000000000000000000000000000000000000000000000081526004016104969190610661565b60405180910390fd5b565b60008060009054906101000a900473ffffffffffffffffffffffffffffffffffffffff169050816000806101000a81548173ffffffffffffffffffffffffffffffffffffffff021916908373ffffffffffffffffffffffffffffffffffffffff1602179055508173ffffffffffffffffffffffffffffffffffffffff168173ffffffffffffffffffffffffffffffffffffffff167f8be0079c531659141344cd1fd0a4f28419497f9722a3daafe3b4186f6b6457e060405160405180910390a35050565b600033905090565b600080fd5b6000819050919050565b61058581610572565b811461059057600080fd5b50565b6000813590506105a28161057c565b92915050565b60008115159050919050565b6105bd816105a8565b81146105c857600080fd5b50565b6000813590506105da816105b4565b92915050565b600080604083850312156105f7576105f661056d565b5b600061060585828601610593565b9250506020610616858286016105cb565b9150509250929050565b600073ffffffffffffffffffffffffffffffffffffffff82169050919050565b600061064b82610620565b9050919050565b61065b81610640565b82525050565b60006020820190506106766000830184610652565b92915050565b61068581610640565b811461069057600080fd5b50565b6000813590506106a28161067c565b92915050565b6000602082840312156106be576106bd61056d565b5b60006106cc84828501610693565b91505092915050565b6000819050919050565b60006106fa6106f56106f084610620565b6106d5565b610620565b9050919050565b600061070c826106df565b9050919050565b600061071e82610701565b9050919050565b61072e81610713565b82525050565b60006020820190506107496000830184610725565b92915050565b60008151905061075e8161057c565b92915050565b60006020828403121561077a5761077961056d565b5b60006107888482850161074f565b91505092915050565b600082825260208201905092915050565b7f4e6f7420656e6f75676820746f6b656e73000000000000000000000000000000600082015250565b60006107d8601183610791565b91506107e3826107a2565b602082019050919050565b60006020820190508181036000830152610807816107cb565b9050919050565b7f4e487b7100000000000000000000000000000000000000000000000000000000600052601260045260246000fd5b600061084882610572565b915061085383610572565b9250826108635761086261080e565b5b828206905092915050565b7f4e487b7100000000000000000000000000000000000000000000000000000000600052601160045260246000fd5b60006108a882610572565b91506108b383610572565b92508282026108c181610572565b915082820484148315176108d8576108d761086e565b5b5092915050565b6108e881610572565b82525050565b60006040820190506109036000830185610652565b61091060208301846108df565b9392505050565b600081519050610926816105b4565b92915050565b6000602082840312156109425761094161056d565b5b600061095084828501610917565b91505092915050565b600060608201905061096e6000830186610652565b61097b6020830185610652565b61098860408301846108df565b94935050505056fea26469706673582212202edeb747d3f193ce57c1899d09873206ef03ef1cefd461ecf0e87d376727bc7b64736f6c63430008180033",
  "linkReferences": {},
  "deployedLinkReferences": {}
}